:1000000003308A00962B00000A108A100A1182071A
:1000100028340C34013406340C00C837F333653609
:10002000E434EE34FA1000000C00D0183A102532F7
:10003000AB12E4152532000050193A102532AB12EC
:10004000E415253200000C00D0183A10253220109B
:100050002028321DA01264000C00D018A025613D9C
:100060006137E43421005019A025613D6137E43443
:100070002100C232F230E232F23221000C00CC3ADE
:1000800074336537A0216136E939F4347200C23A1D
:10009000F437EE3AEE302021E139693721000C00C7
:1000A000533A6139F4136110C230F334EE10000199
:1000B0000C00D018A030F4347310F930F030E33075
:1000C0006B000C005019A030F4347310F930F0308C
:1000D000E3306B000C00D232F3327410E93169372F
:1000E0000001C23AF437EE302021E13969372100AE
:1000F000323084008313000803198C280130F80083
:10010000F701F70B8128F80B80284A30F700F70B2E
:1001100087288A28800B7E280800380EF039F700DF
:100120000F30060577048600000006149728061095
:1001300008008610F0308316860083120615000032
:10014000061400000608060E0F39B800061000005D
:10015000061400000608060E0F39B700061000301E
:10016000831686008312380EF700F030F705770803
:100170003704F8007808B700B71B9A28351C86109A
:10018000351886140000061100000610360EB70060
:100190000F30B7053708B8008D2036080F39B70083
:1001A000B8008D2008000030831686008312861068
:1001B000061106100F30B20078200130AB002B087A
:1001C000033C031CEB280330B8008D200530B2003F
:1001D0007820AB0ADF280230B8008D20AB012B0855
:1001E000033C031CFC282B080420AC00B5012C08A0
:1001F000B6009920AB0AEF288A110A12AD2B013004
:100200003302FC3E03181129043E19298030B40042
:100210001129C030B40011299430B4001129D43010
:10022000B40001303202B407B5013408B600992099
:1002300008000A148A100A118207062909290C29C4
:100240000F2931080C3A03192C29063A03193629CB
:10025000023A03193D294229B5010130B60099201F
:100260000130A0000230B20078204729A00A0130F6
:10027000B2002008B300FF204729B5011030B600B6
:10028000992047290130B5003108B60099200800AF
:100290000B08AC008B13831603178C170C1400008B
:1002A000000083120C087F3903198F290313AD0056
:1002B00003170D080313AE0003170F080313AF0055
:1002C0002D08B10021212E0803178D0003132F08DC
:1002D00003178F0083168C170C1400000000831284
:1002E0000C0D0E0D7F3903198F290313AD00031771
:1002F0000D080313AE0003170F080313AF002D08FA
:10030000B10021212E0803178D0003132F080317B6
:100310008F008D0A03198F0A03134B290317031348
:10032000AC1B8B1708001130AB00AB080319B029C8
:100330000C3003178D0000308F00031348212B0869
:10034000B2000130B300FF200D3003178D000030E4
:100350008F00031348211E30B2007820AB0395298B
:100360008A110A12E42BA901A701A801AB012B08ED
:10037000023C031CC72921302B0784008313800112
:1003800024302B07840083138001AB0AB7298A111C
:100390000A12F72B3208F80131020318D22931086A
:1003A000F700DE29F7010830B300B10DF70D320870
:1003B00077020318F700F80DB30BD52908000108E0
:1003C000AD000B302D07AE0081002D08B1000630C6
:1003D000B200CA2101307707F80008000B08AC0012
:1003E0008B13831603178C170C14000000000318DE
:1003F000202A83120C087F390313AD0003170D0860
:100400000313AE0003170F080313AF002D08B1004C
:1004100021212E0803178D0003132F0803178F00C7
:1004200083168C170C140000000083120313AB0B0F
:100430001A2A1D2A83160317202A3F2A8316031718
:1004400083120C0D0E0D7F390313AD0003170D0839
:100450000313AE0003170F080313AF002D08B100FC
:1004600021212E0803178D0003132F0803178F0077
:100470008D0A03198F0A03100313AB0BF129AC1B70
:100480008B17080020302C1E3030AD002B08F700F1
:10049000AB1F522AF709F70A7708AB002D30AD00E1
:1004A000AC172C142B08B1006430B200CA217708B5
:1004B000AB0030307807AE002B08B1000A30B20034
:1004C000CA2130307707B00030307807AF002D08F0
:1004D000F70030302E020319712AAC14AC1B2C1516
:1004E000852A2D08AE002030AD0030302F020319D0
:1004F0007D2A2C14AC1BAC14852A031D2C14031D5F
:10050000852A2E08AF002030AE002C198C2AAC189A
:100510008F2A2C18922A952A2D08B10021212E0805
:10052000B10021212F08B10021213008B100212183
:100530000800143003178D0000308F00031348218A
:100540000130B200B300FF20153003178D000030DA
:100550008F00031004300313AB00EE212108AB0021
:100560001830AC0042222B30B10021212208AB0010
:100570001830AC0042222B30B10021212308AB00FF
:100580001830AC0042220130B2000230B300FF202C
:100590001C3003178D0000308F000310043003134C
:1005A000AB00EE212408AB001830AC0042222B3007
:1005B000B10021212508AB001830AC0042222B30BD
:1005C000B10021212608AB001830AC0042220800FF
:1005D0002D080739F7002D0CF800F80CF80C1F3027
:1005E000F80578082F078400831330188317F80163
:1005F000F80AF70AFC2AF80DF70BFB2AAE080319D4
:10060000042B78088004072BF80978088005080077
:10061000AB012B08073C031C312B40302B07AC00EF
:10062000AD000130AE00B001AF01E8222C08AD00F2
:10063000AE01B0018030AF00E8221E30B200782059
:1006400040302B07AC00AD00AE01B001AF01E82295
:100650002C08AD00AE01B0018030AF00E822AB0A3B
:10066000092B0800233003178D0000308F0003137F
:1006700048210130B200B300FF20243003178D0061
:1006800000308F00031004300313AB00EE21270865
:10069000AB001830AC004222273003178D00003029
:1006A0008F00031007300313AB00EE212808AB00C6
:1006B0001830AC0042220430AB00FA30B20078208F
:1006C000AB0B5D2B2C3003178D0000308F00031314
:1006D00048210130B200B300FF2027082802031888
:1006E000792B2D3003178D0000308F000313482124
:1006F0008C2B280827020318852B333003178D0015
:1007000000308F00031348218C2B393003178D00E4
:1007100000308F00031348210630AB00FA30B200DE
:100720007820AB0B8E2B8A110A12662CA701A80128
:10073000A901FF30AA0083161F149F141F159F11D3
:1007400007309C0083131F3083058312A101A2018F
:10075000A301A401A501A601D32883160108C0396D
:1007600007388100033087008312AA000030831607
:10077000880086003E30831203178D0000308F0002
:10078000031348210130B200B300FF203F300317AC
:100790008D0000308F00031348210130B200023079
:1007A000B300FF20473003178D0000308F00031384
:1007B00048212A142A08831687008312071CD92B84
:1007C0006430B200782093294F3003178D00003039
:1007D0008F00031348210130B200B300FF205030D6
:1007E00003178D0000308F0003134821B329290817
:1007F000023C031C652C583003178D0000308F001D
:10080000031348210130B200B300FF205930031711
:100810008D0000308F0003134821831605148312C6
:10082000051C0D2C6430B200782021302907F80017
:10083000FA010318FA0A7808AB007A08AC00DF2145
:100840002B08840083132C1883177808800021302C
:100850002907840083130008A70799220823613021
:1008600003178D0000308F00031348210130B200C0
:10087000B300FF20623003178D0000308F00031398
:100880004821831605148312051C412C6430B200E4
:10089000782024302907F800FA010318FA0A7808AA
:1008A000AB007A08AC00DF212B08840083132C18DE
:1008B00083177808800024302907840083130008F8
:1008C000A80799220823A90AF72B322B6A300317AD
:1008D0008D0000308F00031348210130B200B300B7
:1008E000FF206B3003178D0000308F000313482169
:1008F0000130B2000230B300FF20713003178D00C9
:1009000000308F0003134821AA142A088316870099
:100910008312871C842C6430B20078208316BA2B93
:02092000630072
:02400E00793FF8
:00000001FF
;PIC16F877A
;CRC=3FE1  CREATED="17-Ara-24 00:01"
